:1000000071C0000081C000007FC000007DC0000002
:100010007BC0000092C200006BC2000075C00000EF
:1000200073C0000071C000006FC000006DC0000010
:100030006BC0000069C0000067C0000065C0000020
:1000400063C0000061C000005FC000005DC0000030
:100050005BC0000059C0000057C00000BDC20000D6
:1000600053C0000051C000004FC000004DC0000050
:100070004BC0000049C0000047C0000045C0000060
:1000800043C0000041C000003FC000003DC0000070
:100090003BC0000039C0000037C0000035C0000080
:1000A00033C0000031C000002FC000002DC0000090
:1000B0002BC0000029C0000027C0000025C00000A0
:1000C00023C0000021C000001FC000001DC00000B0
:1000D0001BC0000019C0000017C0000015C00000C0
:1000E00013C0000011241FBECFEFD1E2DEBFCDBF91
:1000F00000E00CBF22E0A0E0B2E001C01D92AD31F3
:10010000B207E1F7D1D22BC37BCF86E69EE0019701
:10011000F1F700004098419880E388B9429AEFEFE8
:10012000F7E43197F1F700C000004298E6E6FEE000
:100130003197F1F700004098419888B9429AEFEF63
:10014000F7E43197F1F700C000004298E6E6FEE0E0
:100150003197F1F700004098419888B9429A8FEFA3
:1001600097E40197F1F700C000004298E6E6FEE050
:100170003197F1F700004098419880E288B9429A9F
:100180008FEF97E40197F1F700C0000042980895BF
:1001900098B19F7098B998B1282F207F922B98B969
:1001A00040984198429AEFEFF7E43197F1F700C099
:1001B0000000429898B19F7098B998B18295807F5D
:1001C000892B88B940984198429A8FEF97E401971C
:1001D000F1F700C000004298089597DF86E69EE0A0
:1001E0000197F1F7000088E2D3DF81E0D1DF86E0FC
:1001F000CFDF8EE0CDDF80E8CBCF089598B19F7040
:1002000098B998B1282F207F922B98B9409A41989D
:10021000429AEFEFF7E43197F1F700C000004298FF
:1002200098B19F7098B998B18295807F892B88B9D1
:10023000409A4198429A8FEF97E40197F1F700C0F6
:1002400000004298089580E8A3CF0895823069F0B5
:1002500018F4813031F00895833059F0843069F01A
:1002600008958FE7860F94CF08958FEB860F90CF78
:10027000089583E9860F8CCF089583ED860F88CF8C
:1002800008950F931F93CF93DF938A01E901882389
:1002900011F0611102C0D7DF01C0D8DFC530D10530
:1002A00009F0D1C09801329522952F7023273F7015
:1002B0002327A7E4B3E044D2969587959695879532
:1002C00096958795C096909311028093100296DFC1
:1002D0009801369527953695279536952795A5EC5F
:1002E000B0E22ED2AC01529542954F7045275F7017
:1002F000452750931302409312029A01ADECBCECD7
:100300001FD29695879596958795969587959C018A
:10031000220F331F880F991F880F991F880F991F6D
:10032000820F931F9A01281B390BC901C096909325
:100330001C0280931B0262DF03C0C330D10579F534
:1003400098013695279536952795ABE7B4E1F8D116
:10035000AC015695479550931302409312029A01AF
:10036000ADECBCECEDD196958795969587959695D5
:1003700087959C01220F331F880F991F880F991FA3
:10038000880F991F820F931F9A01281B390BC901EF
:10039000C096909318028093170230DF04C0C230D9
:1003A000D10509F055C09801ADECBCECC9D1AC0148
:1003B00056954795569547955695479550931302F0
:1003C000409312029A01BCD1969587959695879590
:1003D000969587959C01220F331F880F991F880FD0
:1003E000991F880F991F820F931F9A01281B390BA1
:1003F000C901C0969093160280931502FFDE980102
:10040000ADECBCEC9DD19695879596958795969584
:1004100087959C01220F331F880F991F880F991F02
:10042000880F991F820F931F9801281B390BC90150
:10043000C09690931A0280931902E0DE269764F02A
:1004400085E4DCDE09C0C430D10509F076CF40CFA9
:10045000C130D10599F7D3CFDF91CF911F910F9183
:10046000089581B18F6081B982B1807F82B9EAE05D
:10047000F1E0808188618083EBE0F1E08081886138
:1004800080830895E1E2F1E010828FEF80932501EF
:1004900091E0909324011092290110922B01109267
:1004A0002D018093280180932A0180932C0189EAF1
:1004B000809320018BE0808308956C98749A08954E
:1004C0006D98759A0895EAE6F0E0808182608083F5
:1004D000EC9A0895EAE6F0E0808188608083ED9AE6
:1004E0000895BFDFCFDFE9DFEBDFEDDFF3CF089566
:1004F0001F920F920FB60F9211248F939F93AF9379
:10050000BF938091080290910902A0910A02B091D4
:100510000B020196A11DB11D809308029093090260
:10052000A0930A02B0930B02BF91AF919F918F915C
:100530000F900FBE0F901F9018951F920F920FB63D
:100540000F9211248F939F93AF93BF9380910C02CE
:1005500090910D02A0910E02B0910F020196A11D83
:10056000B11D80930C0290930D02A0930E02B093E4
:100570000F02BF91AF919F918F910F900FBE0F907F
:100580001F90189587B1876F87B988B1807888B92F
:10059000089510BA11BA1092070110920801089537
:1005A000EAE7F0E0108210927B0080E280937C000A
:1005B00080E880BF86E880830895E4DFEADFF0DF2B
:1005C000A4DD0BCE08953B9A43980895F894FBDF81
:1005D00088DFF3DF789408951F920F920FB60F9281
:1005E00011240F931F932F933F934F935F936F9318
:1005F0007F938F939F93AF93BF93EF938091040268
:1006000090910502A0910602B091070200910002AC
:10061000109101022091020230910302B901A80158
:10062000445E514F6F4F7F4F4031E7E25E076105F7
:10063000710520F44196A11DB11D09C0B901A801A1
:10064000445F5841610971094296A11DB11D409353
:1006500000025093010260930202709303028093A0
:10066000040290930502A0930602B0930702EF9153
:10067000BF91AF919F918F917F916F915F914F91BA
:100680003F912F911F910F910F900FBE0F901F90D0
:100690001895F89460910402709105028091060209
:1006A000909107027894089591DF14BC81E085BD94
:1006B00080936E000F2EF8EECF2EF3E0DF2EE12CAC
:1006C000F12CF02DE6DF4B015C012FEF8FEF9CE268
:1006D000215080409040E1F700C00000DADF681947
:1006E00079098A099B09A701960108D0BA01A901D5
:1006F00025E030E061E081E0C4DDE4CFA1E21A2E24
:10070000AA1BBB1BFD010DC0AA1FBB1FEE1FFF1FB5
:10071000A217B307E407F50720F0A21BB30BE40B05
:10072000F50B661F771F881F991F1A9469F760954C
:100730007095809590959B01AC01BD01CF01089506
:10074000A29FB001B39FC001A39F700D811D112412
:10075000911DB29F700D811D1124911D0895F89473
:02076000FFCFC9
:00000001FF
